:100000000C9461000C9499000C947E000C947E007A
:100010000C947E000C947E000C947E000C947E0068
:100020000C947E000C947E000C947E000C947E0058
:100030000C947E000C947E000C947E000C947E0048
:100040000C947E000C947E000C947E000C947E0038
:100050000C947E0005010905A1010509190129205B
:1000600015002501750195208102C00902220001B9
:100070000100800A090400000103000000092101B9
:100080000100012217000705810308006412011016
:100090000100000008C016E9030001010200010C84
:1000A000036700660065002000310012036F0062E4
:1000B000006400650076002E0061007400040309EE
:1000C000040011241FBECFE5D4E0DEBFCDBF10E099
:1000D000A0E6B0E0E6E8F7E002C005900D92A43695
:1000E000B107D9F720E0A4E6B0E001C01D92A63C1C
:1000F000B207E1F70E943B020C94C1030C9400008C
:10010000A82FB92F80E090E041E050EA609530E000
:1001100009C02D9182279795879510F08427952700
:10012000305EC8F36F5FA8F30895EADF8D939D9367
:100130000895CF93CFB7CF93C395849BE9F7849B62
:1001400009C0849B07C0849B05C0849B03C0849B1B
:1001500001C0A3C0DF93C091A900DD27C055DF4FC8
:10016000849B02C0DF91EBCF2F930F931F9300B3BB
:100170002FEF04FB20F94F933F9310B34FEF01276C
:1001800004FB21F93BE031C04E7F012F10B3216009
:1001900028C0102F4D7F2260000000B329C04B7F84
:1001A0002460012F000010B32BC010B3477F2860DC
:1001B0002AC04F7E00B320612CC04F7D10B3206257
:1001C0002FC04F7B00B3206432C0422700B3499355
:1001D0004FEF0000102714FB20F910B31471C9F180
:1001E000297F91F2012704FB21F900B3237F89F2D3
:1001F000315058F1102714FB22F910B3277E79F201
:10020000012704FB23F92F7C81F200B3102714FB94
:1002100024F92F7971F200C010B3012704FB25F9EE
:100220002F7359F200C000B3102714FB26F92230B7
:1002300040F200C010B3012704FB27F9243028F650
:100240004F77206810B30000F9CF10E41ABF0027E1
:1002500019C03B503195C31BD04010E41ABF088130
:10026000033CF9F00B34E9F02091A7001981110F3C
:100270001213EDCF4A81441F093641F10D3211F0BE
:10028000013E29F70093AE003F914F911F910F91CE
:100290002F91DF91CAB7C6FD4FCFCF91CFBFCF917E
:1002A00018952091AE00222379F31091AC00112310
:1002B00069F534306AF13093AC002093A8001091B6
:1002C000A9003BE0311B3093A90022C00091AC0093
:1002D0000130E4F40AE54F7049F43091630034FDD5
:1002E00019C000936300C0E9D0E018C030919B00B2
:1002F00034FD10C000939B00CCE9D0E00FC02795DF
:10030000A8F45150A9F4220F0000F9CF4AE503C028
:1003100042ED01C0432FC4E1D0E032E011B31461DB
:10032000949A11BB02B320E414E15F93012756E0D5
:1003300002BB279520F4515021F4220FF9CF012759
:1003400056E000003B5A02BBD0F2279528F45150EA
:1003500029F4220F0000F9CF012756E0279502BBB0
:1003600020F4515021F4220FF9CF012756E02991B2
:10037000332302BB21F60B7E1091AD00110FC65145
:10038000D04002BB11F01093A70010E41ABF006127
:1003900011B31B7E402F4B7E5F9100C000C002BB9B
:1003A00011BB42BB71CFFC01808180768032D1F4D9
:1003B0008181813041F487E690E09093AB00809397
:1003C000AA0084E00895823041F486E690E090939C
:1003D000AB008093AA0081E008958A3019F48381EC
:1003E0008093660080E00895E0916400F0916500DC
:1003F000E059FF4F8081982F9370282F2C702695FD
:100400002695291759F021E030E0309361002093C0
:100410006000990F990F837F892B8083089584B39F
:10042000887F84BB85B3887F85BB87B3887F87BB84
:1004300088B3876088BBECE6F0E080E090E061E0A4
:1004400070E024B3287F24BB44B39B01082E01C075
:10045000220F0A94EAF7242B24BBA7E5B2E01197F8
:10046000F1F700C0000026B3209521930196843057
:10047000910539F7089517BA9EE088E10FB6F89410
:10048000A89581BD0FBE91BD0E94B4038C9A80E0F7
:10049000815041F0A895E7EBFBE03197F1F700C000
:1004A0000000F6CF8C9878940E940F02109265009D
:1004B00010926400809164009091650097FF0CC0D9
:1004C0000E94F401809164009091650001969093E0
:1004D000650080936400EECFA8950E94AC028091E5
:1004E0009B0084FFE1CF86B3807880936700809182
:1004F0006C008093680080916D008093690080910A
:100500006E0080936A0064E087E690E00E948902B2
:10051000CBCFCF93C62F20919B0024FF0BC03091EF
:100520009C0028E8232720939C00FC01ADE9B0E063
:100530008C2F04C02AE520939B00F7CF91919D93C7
:100540008150E1F76C2F8DE990E00E949500CC5F1F
:10055000C0939B00CF910895CF93DF938091AC001F
:10056000835087FDA4C09091A8009D3209F09DC0E2
:10057000883009F09AC08091A900CCE0D0E0C81B77
:10058000D109C055DF4F83EC809390008AE58093BA
:10059000630010926B008881807621F0CE010E946A
:1005A000D3017AC09A81109299008981811106C085
:1005B00010929A0029E930E082E06AC0853019F48F
:1005C0009093AD0062C0863009F049C08B818130C4
:1005D00019F48DE890E01AC0823041F48BE690E087
:1005E0009093AB008093AA0082E235C08330F1F48F
:1005F000911108C08DEB90E09093AB008093AA001E
:1006000084E029C0913041F48BEA90E09093AB00F4
:100610008093AA0082E11FC09230E1F48FE990E05C
:100620009093AB008093AA008CE015C0813241F416
:100630008DE790E09093AB008093AA0089E00BC017
:10064000823241F484E590E09093AB008093AA005D
:1006500087E101C080E090E490936B001DC088307A
:1006600069F0893019F49093AF000FC08A3049F0D7
:100670008B3059F48BE480939C0007C02FEA30E064
:1006800002C029E930E081E003C029E930E080E0E0
:100690003093AB002093AA009F81911104C09E81EA
:1006A000981708F4892F809362001092AC00809113
:1006B000630084FF4CC0809162008F3F09F447C003
:1006C000C82F893008F0C8E08C1B8093620090919D
:1006D000900088E8892780939000CC2359F180917D
:1006E000AA009091AB0020916B0026FF12C0A0E9F8
:1006F000B0E02C2FAC0140595040FA01EA0FFB1F2B
:10070000E4911196EC931197215011962111F5CF98
:1007100008C0E1E9F0E0DC012C2F3D91319321503C
:10072000E1F701962FEF2C0F820F911D9093AB00F4
:100730008093AA006C2F81E990E00E949500CC5F25
:10074000CC3019F08FEF80936200C093630084E196
:1007500090B3947131F48150D9F71092AD0010929A
:10076000A700DF91CF91089585B7826085BF8BB7D1
:1007700080648BBFEBE9F0E08BE481838AE58083C2
:060780000895F894FFCF7C
:040786000100FF5A15
:00000001FF
