S0120000673130303072696768742E73726563CC
S11300000C9461000C9499000C947E000C947E0076
S11300100C947E000C947E000C947E000C947E0064
S11300200C947E000C947E000C947E000C947E0054
S11300300C947E000C947E000C947E000C947E0044
S11300400C947E000C947E000C947E000C947E0034
S11300500C947E0005010905A10105091901292057
S113006015002501750195208102C00902220001B5
S11300700100800A090400000103000000092101B5
S11300800100012217000705810308006412011012
S11300900100000008C016E9030001010200010C80
S11300A0036700660065002000310012036F0062E0
S11300B0006400650076002E0061007400040309EA
S11300C0040011241FBECFE5D4E0DEBFCDBF10E095
S11300D0A0E6B0E0E0EDF8E002C005900D92A43691
S11300E0B107D9F720E0A4E6B0E001C01D92A03D1D
S11300F0B207E1F70E9482020C9466040C9400009B
S1130100A82FB92F80E090E041E050EA609530E0FC
S113011009C02D9182279795879510F084279527FC
S1130120305EC8F36F5FA8F30895EADF8D939D9363
S11301300895CF93CFB7CF93C395849BE9F7849B5E
S113014009C0849B07C0849B05C0849B03C0849B17
S113015001C0A3C0DF93C091B300DD27C654DF4FB5
S1130160849B02C0DF91EBCF2F930F931F9300B3B7
S11301702FEF04FB20F94F933F9310B34FEF012768
S113018004FB21F93BE031C04E7F012F10B3216005
S113019028C0102F4D7F2260000000B329C04B7F80
S11301A02460012F000010B32BC010B3477F2860D8
S11301B02AC04F7E00B320612CC04F7D10B3206253
S11301C02FC04F7B00B3206432C0422700B3499351
S11301D04FEF0000102714FB20F910B31471C9F17C
S11301E0297F91F2012704FB21F900B3237F89F2CF
S11301F0315058F1102714FB22F910B3277E79F2FD
S1130200012704FB23F92F7C81F200B3102714FB90
S113021024F92F7971F200C010B3012704FB25F9EA
S11302202F7359F200C000B3102714FB26F92230B3
S113023040F200C010B3012704FB27F9243028F64C
S11302404F77206810B30000F9CF10E41ABF0027DD
S113025019C03B503195C31BD04010E41ABF08812C
S1130260033CF9F00B34E9F02091B1001981110F2E
S11302701213EDCF4A81441F093641F10D3211F0BA
S1130280013E29F70093B8003F914F911F910F91C0
S11302902F91DF91CAB7C6FD4FCFCF91CFBFCF917A
S11302A018952091B800222379F31091B6001123F8
S11302B069F534306AF13093B6002093B20010919E
S11302C0B3003BE0311B3093B30022C00091B60071
S11302D00130E4F40AE54F7049F43091630034FDD1
S11302E019C000936300CAE9D0E018C03091A5009A
S11302F034FD10C00093A500C6EAD0E00FC02795D6
S1130300A8F45150A9F4220F0000F9CF4AE503C024
S113031042ED01C0432FC4E1D0E032E011B31461D7
S1130320949A11BB02B320E414E15F93012756E0D1
S113033002BB279520F4515021F4220FF9CF012755
S113034056E000003B5A02BBD0F2279528F45150E6
S113035029F4220F0000F9CF012756E0279502BBAC
S113036020F4515021F4220FF9CF012756E02991AE
S1130370332302BB21F60B7E1091B700110FC65137
S1130380D04002BB11F01093B10010E41ABF006119
S113039011B31B7E402F4B7E5F9100C000C002BB97
S11303A011BB42BB71CFFC01808180768032D1F4D5
S11303B08181813041F487E690E09093B500809389
S11303C0B40084E00895823041F486E690E090938E
S11303D0B5008093B40081E008958A3019F48381D4
S11303E08093660080E00895E0916400F0916500D8
S11303F0E658FF4F8081982F9370282F2C702695F4
S11304002695291759F021E030E0309361002093BC
S11304106000990F990F837F892B8083089587B398
S1130420887F87BB88B3887F88BB8AB3807F8ABB79
S11304308BB38F608BBBBB98E6E7F0E080E090E085
S113044061E070E027B3287F27BB47B39B01082EE8
S113045001C0220F0A94EAF7242B27BBA7E5B2E0D8
S11304601197F1F700C0000029B32095219326B31A
S113047020952093790001968330910519F708950A
S1130480E0917400F0E0E459FF4F8081282F2C7034
S113049030E03595279535952795482F43704217B9
S11304A029F161E070E07093610060936000220FB5
S11304B02827237090917500223030F0933010F487
S11304C0806405C0806109C0933030F48068808303
S11304D09F5F9093750004C08062808310927500C2
S11304E08081837F440F440F482B408308958EB549
S11304F088608EBD8EB585608EBD80E092E09BBD28
S11305008ABD089510926C0010926D0010926E00D6
S113051010926F001092700010927100109272008D
S113052014BA81E085BB0E9477029EE088E10FB691
S1130530F894A89581BD0FBE91BD0E9459048C9A70
S113054080E0815041F0A895E7EBFBE03197F1F7AB
S113055000C00000F6CF8C987894CFEF0E940F0271
S1130560109265001092640080916400909165007F
S113057097FF0CC00E94F401809164009091650083
S113058001969093650080936400EECF8AB31ABA03
S11305908BB3CBBB29B399B380916C00382F3C70DB
S11305A0822F8071832B9072892B80936C00109220
S11305B06500109264008091640090916500069734
S11305C064F40E9440028091640090916500019659
S11305D09093650080936400EECFA8950E94510328
S11305E08091A50084FFBACF409177008091790073
S11305F0F0E88F9FC00111248058942F9C7054E020
S1130600959F90011124822B909176009F70892BE5
S113061080936700809178008093680080916000E7
S113062090916100019721F480916C00809369009E
S113063040936A00109261001092600008B604FEB4
S113064007C01092690088B7806188BF1092750056
S113065064E087E690E00E942E0380CFCF93C62FFC
S11306602091A50024FF0BC03091A60028E8232781
S11306702093A600FC01A7EAB0E08C2F04C02AE571
S11306802093A500F7CF91919D938150E1F76C2FB2
S113069087EA90E00E949500CC5FC093A500CF91BB
S11306A00895CF93DF938091B600835087FDA4C053
S11306B09091B2009D3209F09DC0883009F09AC033
S11306C08091B300CCE0D0E0C81BD109C654DF4F01
S11306D083EC80939A008AE58093630010926B0008
S11306E08881807621F0CE010E94D3017AC09A815C
S11306F01092A3008981811106C01092A40023EAFC
S113070030E082E06AC0853019F49093B70062C08B
S1130710863009F049C08B81813019F48DE890E06E
S11307201AC0823041F48BE690E09093B500809338
S1130730B40082E235C08330F1F4911108C08DEB2E
S113074090E09093B5008093B40084E029C0913088
S113075041F48BEA90E09093B5008093B40082E179
S11307601FC09230E1F48FE990E09093B50080933C
S1130770B4008CE015C0813241F48DE790E0909391
S1130780B5008093B40089E00BC0823241F484E563
S113079090E09093B5008093B40087E101C080E0BD
S11307A090E490936B001DC0883069F0893019F48F
S11307B09093B9000FC08A3049F08B3059F48BE420
S11307C08093A60007C029EB30E002C023EA30E0A2
S11307D081E003C023EA30E080E03093B500209349
S11307E0B4009F81911104C09E81981708F4892F49
S11307F0809362001092B6008091630084FF4CC025
S1130800809162008F3F09F447C0C82F893008F0F7
S1130810C8E08C1B8093620090919A0088E8892735
S113082080939A00CC2359F18091B4009091B50043
S113083020916B0026FF12C0AAE9B0E02C2FAC0176
S11308404A595040FA01EA0FFB1FE4911196EC93C8
S11308501197215011962111F5CF08C0EBE9F0E072
S1130860DC012C2F3D9131932150E1F701962FEFBC
S11308702C0F820F911D9093B5008093B4006C2FC0
S11308808BE990E00E949500CC5FCC3019F08FEF9B
S113089080936200C093630084E190B3947131F457
S11308A08150D9F71092B7001092B100DF91CF9127
S11308B0089585B7826085BF8BB780648BBFE5EAF6
S11308C0F0E08BE481838AE580830895F894FFCF78
S10708D00100FF5AC6
S9030000FC
