:1018000050C084C069C068C067C066C065C064C09D
:1018100063C062C061C060C05FC05EC05DC05CC0CC
:101820005BC05AC059C00600FF0901A1011500267E
:10183000FF007508850195060900B2020185029531
:10184000830900B20201C0090222000101008032B6
:101850000904000001030000000921010100012228
:101860002100070581030800C812011001000000D3
:1018700008C016DF050001010200011003480049FD
:1018800000440042006F006F00740012036F00629A
:10189000006400650076002E0061007400040309F6
:1018A000040011241FBECFE5D4E0DEBFCDBF10E0A1
:1018B000A0E6B0E0EEEAFEE102C005900D92AA3685
:1018C000B107D9F720E0AAE6B0E001C01D92A9391E
:1018D000B207E1F74CD1E9C293CFA82FB92F80E02E
:1018E00090E041E050EA609530E009C02D918227F8
:1018F0009795879510F084279527305EC8F36F5F22
:10190000A8F30895EADF8D939D930895CF93CFB701
:10191000CF93C395819BE9F7819B09C0819B07C049
:10192000819B05C0819B03C0819B01C0A3C0DF9345
:10193000C0917C00DD27CD57DF4F819B02C0DF9136
:10194000EBCF2F930F931F9300B32FEF01FB20F9E1
:101950004F933F9310B34FEF012701FB21F93BE079
:1019600031C04E7F012F10B3216028C0102F4D7F52
:101970002260000000B329C04B7F2460012F0000CB
:1019800010B32BC010B3477F28602AC04F7E00B32E
:1019900020612CC04F7D10B320622FC04F7B00B35D
:1019A000206432C0422700B349934FEF0000102754
:1019B00011FB20F910B31670C9F1297F91F20127AC
:1019C00001FB21F900B3237F89F2315058F1102730
:1019D00011FB22F910B3277E79F2012701FB23F9CD
:1019E0002F7C81F200B3102711FB24F92F7971F2BB
:1019F00000C010B3012701FB25F92F7359F200C075
:101A000000B3102711FB26F9223040F200C010B3BA
:101A1000012701FB27F9243028F64F77206810B3FF
:101A20000000F9CF10E41ABF002719C03B503195D0
:101A3000C31BD04010E41ABF0881033CF9F00B34FB
:101A4000E9F020917A001981110F1213EDCF4A812C
:101A5000441F093641F10D3211F0013E29F7009380
:101A600081003F914F911F910F912F91DF91CAB744
:101A7000C6FD4FCFCF91CFBFCF9118952091810058
:101A8000222379F310917F00112321F5343022F1C4
:101A900030937F0020937B0010917C003BE0311B52
:101AA00030937C0019C000917F0001309CF40AE55E
:101AB0004F7081F43091680034FD10C000936800CD
:101AC000CFE6D0E00FC02795A8F45150A9F4220F1B
:101AD0000000F9CF4AE503C042ED01C0432FC4E145
:101AE000D0E032E011B31660919A11BB02B320E44A
:101AF00016E05F93012756E002BB279520F4515072
:101B000021F4220FF9CF012756E000003B5A02BB17
:101B1000D0F2279528F4515029F4220F0000F9CF74
:101B2000012756E0279502BB20F4515021F4220FE3
:101B3000F9CF012756E02991332302BB21F6097F13
:101B400010918000110FC651D04002BB11F01093CC
:101B50007A0010E41ABF026011B3197F402F497F49
:101B60005F9100C000C002BB11BB42BB7ACF82E0D4
:101B700088BB98E29A95F1F7B19B0DC0F89481E18A
:101B800080935700E8951BBE15BE81E08BBF1BBE3E
:101B9000E0E0F0E0099591E09BBF8BBF85B78360E3
:101BA00085BF8BB780648BBF899A80E0A895E7EBEF
:101BB000FBE03197F1F700C000008150B9F7899838
:101BC000789410E0D0E0A89540917F003DEF340F6D
:101BD00037FD18C180917C00ACE0B0E0A81BB109D2
:101BE000AD57BF4F80917B008D3209F0BCC03830BB
:101BF00009F006C183EC80936F008AE5809368004A
:101C000010926E008C91282F207611969C9111973E
:101C10002223E1F0993079F412969C911297923038
:101C200031F410926B0087FD8AC08FEF8AC081E08B
:101C300080936A008AC0913009F087C080E690E006
:101C400090937E0080937D0087E080C012968C91F7
:101C5000129710927800911106C01092790028E72F
:101C600030E082E067C0953019F48093800054C062
:101C7000963009F04BC013969C911397913019F44C
:101C800089E698E11AC0923041F487E498E1909394
:101C90007E0080937D0082E235C09330F1F48111A3
:101CA00008C08DE998E190937E0080937D0084E0E8
:101CB00029C0813041F48BE898E190937E008093B5
:101CC0007D0082E11FC08230E1F48BE798E19093C0
:101CD0007E0080937D0080E115C0913241F489E55A
:101CE00098E190937E0080937D0089E00BC0923252
:101CF00041F486E298E190937E0080937D0081E23A
:101D000001C080E090E490936E0020C0983079F09C
:101D1000993031F48093820028E730E080E00AC0F7
:101D200081E09A3009F080E028E730E003C022E843
:101D300030E081E030937E0020937D0007C016964E
:101D40008C9190E890936E000BC080E017969C9168
:101D50001797911105C016969C91981708F4892F32
:101D6000809367004DC080916E0087FF49C08091CD
:101D70006C0090916D0020916B00211109C01196AB
:101D80008C91119712969C911297149639EF340FFB
:101D9000230F20936B002078482F4F7399F0F8940D
:101DA0006D917D9141E0FC010B0140935700E89556
:101DB00011247894AC014E5F5F4FCA01642F6F739A
:101DC00061F014C0F89443E0FC0140935700E8959B
:101DD000789407B600FCFDCFE2CFF89465E06093FD
:101DE0005700E895789407B600FCFDCF325009F013
:101DF000D3CF50936D0040936C0021111092670077
:101E000010927F008091680084FF39C08091670044
:101E10008F3FA9F1C82F893008F0C8E08C1B809350
:101E2000670090916F0088E8892780936F00CC232A
:101E3000D1F0E0917D00F0917E0080916E00A0E7EE
:101E4000B0E086FF07C08C2F94919D93319681500E
:101E5000D9F705C08C2F91919D938150E1F7F093B4
:101E60007E00E0937D006C2F80E790E04BDDCC5F3F
:101E7000CC3019F08FEF80936700C093680084E145
:101E800090B3967031F48150D9F71092800010927F
:101E90007A0080916A00882329F0D15019F41150FA
:0E1EA00009F46CCEB19B8FCE69CEF894FFCFC3
:0A1EAE0001400000200000FF5A0070
:0400000300001800E1
:00000001FF
