S012000067313030305F6C6566742E73726563E0
S11300000C946A000C94A2000C9487000C94870052
S11300100C9487000C9487000C9487000C94870040
S11300200C9487000C9487000C9487000C94870030
S11300300C9487000C9487000C9487000C94870020
S11300400C9487000C9487000C9487000C94870010
S11300500C94870005010905A1010509190129204E
S11300601500250175019520810205010936150049
S113007025FF750895018102C009022200010100D3
S1130080800A0904000001030000000921010100A5
S113009001222500070581030800641201100100F4
S11300A0000008C01601400001010200011A0367A4
S11300B00031003000300030005F006C00650066E5
S11300C00074002000310008036700660065000426
S11300D00309040011241FBECFE5D4E0DEBFCDBF69
S11300E010E0A0E6B0E0ECE8FBE002C005900D9261
S11300F0A436B107D9F720E0A4E6B0E001C01D9210
S1130100A13DB207E1F70E9480020C94C4050C944F
S11301100000A82FB92F80E090E041E050EA6095FC
S113012030E009C02D9182279795879510F0842798
S11301309527305EC8F36F5FA8F30895EADF8D93C7
S11301409D930895CF93CFB7CF93C395849BE9F73D
S1130150849B09C0849B07C0849B05C0849B03C007
S1130160849B01C0A3C0DF93C091B400DD27C554B4
S1130170DF4F849B02C0DF91EBCF2F930F931F932C
S113018000B32FEF04FB20F94F933F9310B34FEFCD
S1130190012704FB21F93BE031C04E7F012F10B34E
S11301A0216028C0102F4D7F2260000000B329C0B9
S11301B04B7F2460012F000010B32BC010B3477F86
S11301C028602AC04F7E00B320612CC04F7D10B33D
S11301D020622FC04F7B00B3206432C0422700B39B
S11301E049934FEF0000102714FB20F910B314714A
S11301F0C9F1297F91F2012704FB21F900B3237F80
S113020089F2315058F1102714FB22F910B3277EDC
S113021079F2012704FB23F92F7C81F200B3102724
S113022014FB24F92F7971F200C010B3012704FBE9
S113023025F92F7359F200C000B3102714FB26F9D7
S1130240223040F200C010B3012704FB27F9243008
S113025028F64F77206810B30000F9CF10E41ABFD6
S1130260002719C03B503195C31BD04010E41ABF7E
S11302700881033CF9F00B34E9F02091B2001981B4
S1130280110F1213EDCF4A81441F093641F10D328B
S113029011F0013E29F70093B9003F914F911F914E
S11302A00F912F91DF91CAB7C6FD4FCFCF91CFBF2A
S11302B0CF9118952091B900222379F31091B700BA
S11302C0112369F534306AF13093B7002093B300F9
S11302D01091B4003BE0311B3093B40022C0009174
S11302E0B7000130E4F40AE54F7049F4309163003B
S11302F034FD19C000936300CBE9D0E018C03091FD
S1130300A60034FD10C00093A600C7EAD0E00FC0D9
S11303102795A8F45150A9F4220F0000F9CF4AE51B
S113032003C042ED01C0432FC4E1D0E032E011B379
S11303301461949A11BB02B320E414E15F93012782
S113034056E002BB279520F4515021F4220FF9CF37
S1130350012756E000003B5A02BBD0F2279528F44F
S1130360515029F4220F0000F9CF012756E02795B8
S113037002BB20F4515021F4220FF9CF012756E09B
S11303802991332302BB21F60B7E1091B800110F83
S1130390C651D04002BB11F01093B20010E41ABF52
S11303A0006111B31B7E402F4B7E5F9100C000C0E3
S11303B002BB11BB42BB71CFFC019081907690329D
S11303C0E1F48181813041F487E690E09093B600B6
S11303D08093B50085E00895823041F486E690E08C
S11303E09093B6008093B50081E008958A3039F483
S11303F083818093660080E0089580E0089580E022
S113040008954091640050916500FA01E359FF4F4B
S11304102081822F8C7090E095958795959587958E
S1130420322F3370381709F440C061E070E07093E4
S1130430610060936000880F822783708230A8F087
S113044080917400833048F4FA01E359FF4F20642B
S113045020838F5F809374001CC0FA01E359FF4F1F
S1130460206120831092740014C080917400833042
S113047048F4FA01E359FF4F206820838F5F80938B
S1130480740007C0FA01E359FF4F206220831092E1
S11304907400E0916400F0916500E359FF4F80819E
S11304A0837F330F330F382B30830895809164009A
S11304B08F70806687B987EC86B93699FECF8091B4
S11304C0640090916500863091053CF425B1FC01EF
S11304D0EB58FF4F20582083089524B1FC01EB58BA
S11304E0FF4F208785B1808308958EB588608EBDC7
S11304F08EB585608EBD80E093E09BBD8ABD089576
S1130500EDE6F0E0108211821282138214821582C9
S113051016820E9475029EE088E10FB6F894A895B1
S113052081BD0FBE91BD0E94B7058C9A8FEFA8952F
S1130530E7EBFBE03197F1F700C000008150B9F719
S11305408C987894CDE6D0E007E610E00F2EF5E71E
S1130550CF2EF0E0DF2EF02D0F2EF6EAEF2EF0E096
S1130560FF2EF02D99249A940F2EF5E0AF2EB12C86
S1130570F02D6894772471F810926500109264004D
S1130580882483948AB31ABA87B317BA84B314BA83
S113059081B311BA8BB38F6D8BBB88B398BA85B313
S11305A095BA82B38B6E82BB80B320B3887090E01F
S11305B0959587959595879525FB992790F9892B8E
S11305C098819C70892B888396B330B329812C70D1
S11305D0832F8170282B9078892F90E0082E892F03
S11305E0000C881F990B000C881F991F822B89838C
S11305F086B326B3807290E09595879595958795F7
S1130600959587959595879526FB992790F9892B3C
S11306109A819C70892B8A8393B333B32B812C707A
S1130620832F8170282B9470892F90E0959587955E
S1130630822B8B8386B326B3887090E0959587953B
S11306409595879522FB992790F9892B9C819C701D
S1130650892B8C8389B326B3807490E09595879514
S1130660959587959595879595958795959587956E
S113067021FB992790F9892B9D819C70892B8D836F
S113068010926500109264000E940102809164003F
S1130690909165000196909365008093640006979D
S11306A09CF3B0926500A09264000E94560280916F
S11306B064009091650001969093650080936400B6
S11306C006979CF3E6B360B343B333B323B393B356
S11306D083B353B3E071F0E0E095F095E4FBAA270F
S11306E0A0F9607470E060957095607477277595D3
S11306F067957595679575956795759567957595DE
S11307006795A62B507850955078A52B742F787048
S1130710472F50E04095509548705527559547957B
S11307204A2B3071A32FB0E0A095B095A071BB27E0
S1130730B595A795A42B322F3072432F50E04095E6
S1130740509540725527559547954A2B9074292FFB
S113075030E0209530952074332735952795242B48
S1130760982F9078892F90E080959095807899279C
S113077095958795822BF8018083E6B3E825E1708F
S1130780C89B02C0F0E001C0F72D49B369B339B387
S113079029B390B383B3427050E0409550954270B2
S11307A05527440F551F647070E060957095647010
S11307B07727660F771F462BE42B3870A32FB0E002
S11307C0A095B095A870BB27AA0FBB1FEA2B322FA8
S11307D03071A32FB0E0A095B095A071BB27AA0FEC
S11307E0BB1FAE2B9270292F30E0209530952270DC
S11307F03327220F331F22953295307F3227207FF3
S113080032272A2B982F9270892F90E0809590950B
S113081082709927002496958795079496958795D5
S11308200794982F802D822B8F2BF8018183F6015A
S11308308581F80184838091600090916100019723
S113084069F58B8138813295369536953370282F2A
S1130850207C432F422B2981207C22952F70322F1C
S1130860342B2A81207C26952695232B22832C81C8
S1130870207C8073822B82958F70982F906C8D8151
S1130880807C86958695892B8383109261001092D3
S1130890600088B7806188BF1DBC1CBC87EB9BE0EF
S11308A00197F1F700C0000008B604FE08C0F80183
S11308B0128213821092740088B7806188BFA89551
S11308C00E949304F701808184FF05C065E0C8019C
S11308D00E94700451CE109265001092640052CEB2
S11308E0CF93C62F2091A60024FF07C0E6EAF0E0CC
S11308F0318128E82327218303C02AE52093A60019
S1130900E82FF92FA8EAB0E08C2F91919D938150A4
S1130910E1F76C2F88EA90E00E949E00CC5FC093C0
S1130920A600CF910895CF93DF938091B7008350B1
S11309300AF4B5C09091B3009D3209F0AEC088307E
S113094009F0ABC08091B400CCE0D0E0C81BD10961
S1130950C554DF4F83EC80939B008AE5809363004A
S113096010926C008881807621F0CE010E94DC0117
S11309708BC09A811092A4008981811106C01092C3
S1130980A50024EA30E082E07BC0853031F4909306
S1130990B80024EA30E080E073C0863009F050C02B
S11309A08B81813041F48BE990E09093B600809381
S11309B0B50082E141C0823041F489E790E0909330
S11309C0B6008093B50082E237C08330F1F4911110
S11309D008C08FEC90E09093B6008093B50084E05B
S11309E02BC0913041F487EC90E09093B600809353
S11309F0B50088E021C09230E1F48DEA90E0909354
S1130A00B6008093B5008AE117C0813241F48BE8C7
S1130A1090E09093B6008093B50089E00DC08232D7
S1130A2051F484E590E09093B6008093B50085E29C
S1130A3003C080E001C080E090E490936C0024C087
S1130A40883099F0893031F49093BA0024EA30E088
S1130A5080E016C08A3069F08B3079F48BE480939F
S1130A60A70024EA30E080E00BC02AEB30E081E00C
S1130A7007C024EA30E081E003C024EA30E080E0EB
S1130A803093B6002093B5009F81911104C09E81DC
S1130A90981708F4892F809362001092B700809110
S1130AA0630084FF4CC0809162008F3F09F447C00B
S1130AB0C82F893008F0C8E08C1B80936200EBE9F2
S1130AC0F0E0908188E889278083CC2309F445C02D
S1130AD02091B5003091B60080916C0086FF10C063
S1130AE0ACE9B0E0F9018C2F94919D93319681503B
S1130AF0D9F72F5F3F4F8FEF8C0F280F311D0EC09A
S1130B00ACE9B0E0F9018C2F91919D938150E1F70C
S1130B102F5F3F4F8FEF8C0F280F311D3093B6009E
S1130B202093B5006C2F8CE990E00E949E00CC5F6E
S1130B30CC3018F48FEF80936200C093630080B3CD
S1130B40847191F493E180B3847171F49150D9F775
S1130B501092B8001092B20007C06C2F8CE990E09C
S1130B600E949E00CC5FE6CFDF91CF91089585B7B8
S1130B70826085BF8BB780648BBFE6EAF0E08BE4CC
S10F0B8081838AE580830895F894FFCFF8
S1070B8C0100FF5A07
S9030000FC
