:100000000C9461000C9499000C947E000C947E007A
:100010000C947E000C947E000C947E000C947E0068
:100020000C947E000C947E000C947E000C947E0058
:100030000C947E000C947E000C947E000C947E0048
:100040000C947E000C947E000C947E000C947E0038
:100050000C947E0005010905A1010509190129205B
:1000600015002501750195208102C00902220001B9
:100070000100800A090400000103000000092101B9
:100080000100012217000705810308006412011016
:100090000100000008C016E9030001010200010C84
:1000A000036700660065002000310012036F0062E4
:1000B000006400650076002E0061007400040309EE
:1000C000040011241FBECFE5D4E0DEBFCDBF10E099
:1000D000A0E6B0E0E6E0FBE002C005900D92A43699
:1000E000B107D9F720E0A4E6B0E001C01D92A73D1A
:1000F000B207E1F70E9485020C9481050C94000080
:10010000A82FB92F80E090E041E050EA609530E000
:1001100009C02D9182279795879510F08427952700
:10012000305EC8F36F5FA8F30895EADF8D939D9367
:100130000895CF93CFB7CF93C395849BE9F7849B62
:1001400009C0849B07C0849B05C0849B03C0849B1B
:1001500001C0A3C0DF93C091BA00DD27CF53DF4FAA
:10016000849B02C0DF91EBCF2F930F931F9300B3BB
:100170002FEF04FB20F94F933F9310B34FEF01276C
:1001800004FB21F93BE031C04E7F012F10B3216009
:1001900028C0102F4D7F2260000000B329C04B7F84
:1001A0002460012F000010B32BC010B3477F2860DC
:1001B0002AC04F7E00B320612CC04F7D10B3206257
:1001C0002FC04F7B00B3206432C0422700B3499355
:1001D0004FEF0000102714FB20F910B31471C9F180
:1001E000297F91F2012704FB21F900B3237F89F2D3
:1001F000315058F1102714FB22F910B3277E79F201
:10020000012704FB23F92F7C81F200B3102714FB94
:1002100024F92F7971F200C010B3012704FB25F9EE
:100220002F7359F200C000B3102714FB26F92230B7
:1002300040F200C010B3012704FB27F9243028F650
:100240004F77206810B30000F9CF10E41ABF0027E1
:1002500019C03B503195C31BD04010E41ABF088130
:10026000033CF9F00B34E9F02091B8001981110F2B
:100270001213EDCF4A81441F093641F10D3211F0BE
:10028000013E29F70093BF003F914F911F910F91BD
:100290002F91DF91CAB7C6FD4FCFCF91CFBFCF917E
:1002A00018952091BF00222379F31091BD001123EE
:1002B00069F534306AF13093BD002093B900109194
:1002C000BA003BE0311B3093BA0022C00091BD0060
:1002D0000130E4F40AE54F7049F43091630034FDD5
:1002E00019C000936300C1EAD0E018C03091AC009F
:1002F00034FD10C00093AC00CDEAD0E00FC02795CC
:10030000A8F45150A9F4220F0000F9CF4AE503C028
:1003100042ED01C0432FC4E1D0E032E011B31461DB
:10032000949A11BB02B320E414E15F93012756E0D5
:1003300002BB279520F4515021F4220FF9CF012759
:1003400056E000003B5A02BBD0F2279528F45150EA
:1003500029F4220F0000F9CF012756E0279502BBB0
:1003600020F4515021F4220FF9CF012756E02991B2
:10037000332302BB21F60B7E1091BE00110FC65134
:10038000D04002BB11F01093B80010E41ABF006116
:1003900011B31B7E402F4B7E5F9100C000C002BB9B
:1003A00011BB42BB71CFFC01908190769032E1F499
:1003B0008181813041F487E690E09093BC00809386
:1003C000BB0084E00895823041F486E690E090938B
:1003D000BC008093BB0081E008958A3039F48381AA
:1003E0008093660080E0089580E0089580E008959D
:1003F00087B3887F87BB88B3887F88BB8AB3807FB9
:100400008ABB8BB38F608BBBE5E7F0E080E090E0C8
:1004100061E070E027B3287F27BB47B39B01082E1C
:1004200002C0220F331F0A94E2F7242B27BBA7E553
:10043000B2E01197F1F700C0000029B32095219395
:1004400001968330910531F70895409164005091F1
:100450006500FA01E459FF4F2081822F8C7090E0F3
:100460009595879595958795322F3370381709F4B0
:1004700040C061E070E07093610060936000880F9D
:10048000822783708230A8F080917400833048F412
:10049000FA01E459FF4F206420838F5F809374003A
:1004A0001CC0FA01E459FF4F2061208310927400B0
:1004B00014C080917400833048F4FA01E459FF4F6E
:1004C000206820838F5F8093740007C0FA01E4598D
:1004D000FF4F2062208310927400E0916400F0913D
:1004E0006500E459FF4F8081837F330F330F382B32
:1004F000308308958EB588608EBD8EB585608EBDC3
:1005000080E093E09BBD8ABD0895ECE6F0E01082A8
:100510001182128213821482158216820E947A023C
:100520009EE088E10FB6F894A89581BD0FBE91BDFD
:100530000E9474058C9A8FEFA895E7EBFBE031974A
:10054000F1F700C000008150B9F78C987894BB2473
:10055000BA94CCE6D0E00F2EF5E7EF2EF0E0FF2EB8
:10056000F02D07E610E00F2EFCEACF2EF0E0DF2E94
:10057000F02D0E94F80110926500109264008AB379
:100580001ABA87B317BA84B314BA81B311BA8BB34A
:10059000BBBA88B3B8BA85B3B5BA82B38B6E82BB27
:1005A00089B323B3807190E095958795959587954C
:1005B0009595879523FB992790F9892B98819C70B5
:1005C000892B888380B320B3887090E095958795B8
:1005D0009595879525FB992790F9892B99819C7092
:1005E000892B898396B330B32A812C70832F817035
:1005F000282B9078892F90E0082E892F000C881FD7
:10060000990B000C881F991F822B8A8386B326B30F
:10061000807290E0959587959595879595958795A6
:100620009595879526FB992790F9892B9B819C703E
:10063000892B8B8393B333B32C812C70832F8170E0
:10064000282B9470892F90E095958795822B8C8329
:1006500089B329B3807890E0082E892F000C881F79
:10066000990B000C881F991F26FB992790F9892B5D
:100670009D819C70892B8D8383B323B3807890E018
:10068000082E892F000C881F990B000C881F991FBA
:1006900024FB992790F9892B9E819C70892B8E834E
:1006A00083B326B3807290E095958795959587954D
:1006B000959587959595879523FB992790F9892B93
:1006C0009F819C70892B8F8310926500109264002B
:1006D0000E9425028091640090916500019690939C
:1006E00065008093640008979CF310926500109257
:1006F0006400F701808196B32181322F3C70282F4E
:100700002072232B220F220F8F70282B9071892F9C
:1007100090E08095909580719927880F991F880F98
:10072000991F822BF801808360B350B333B393B326
:10073000607470E06095709560747727660F771F1E
:100740005270452F50E04095509542705527440F08
:10075000551F42955295507F5427407F5427462B72
:10076000F70122812F70422B3270232F30E0209529
:1007700030952270332722953295307F3227207FA3
:100780003227242B9074892F90E080959095807467
:1007900099279595879595958795822BF801818363
:1007A0008091600090916100019799F598819295F0
:1007B0009695969593708B81807C292F282B898123
:1007C000807C82958F70982F922B8A81807C869571
:1007D0008695892B82839C819295969596959370A8
:1007E0008F81807C292F282B8D81807C82958F7032
:1007F000982F922B8E81807C86958695892B83837A
:10080000109261001092600088B7806188BF1DBCA3
:100810001CBC87EB9BE00197F1F700C0000008B615
:1008200004FE08C0F801128213821092740088B787
:10083000806188BFA8950E945004F601808184FFE2
:1008400005C064E0C8010E942D0493CE0E94F80107
:10085000109265001092640092CECF93C62F209123
:10086000AC0024FF07C0ECEAF0E0318128E8232740
:10087000218303C02AE52093AC00E82FF92FAEEACC
:10088000B0E08C2F91919D938150E1F76C2F8EEA0F
:1008900090E00E949500CC5FC093AC00CF9108958A
:1008A000CF93DF938091BD0083500AF4B5C090913F
:1008B000B9009D3209F0AEC0883009F0ABC080911C
:1008C000BA00CCE0D0E0C81BD109CF53DF4F83EC96
:1008D0008093A1008AE58093630010926B00888169
:1008E000807621F0CE010E94D3018BC09A811092B4
:1008F000AA008981811106C01092AB002AEA30E07B
:1009000082E07BC0853031F49093BE002AEA30E06B
:1009100080E073C0863009F050C08B81813041F493
:100920008DE890E09093BC008093BB0082E141C0D1
:10093000823041F48BE690E09093BC008093BB0042
:1009400082E237C08330F1F4911108C08DEB90E062
:100950009093BC008093BB0084E02BC0913041F4A5
:100960008BEA90E09093BC008093BB0082E121C0B1
:100970009230E1F48FE990E09093BC008093BB004B
:100980008CE017C0813241F48DE790E09093BC0079
:100990008093BB0089E00DC0823251F484E590E081
:1009A0009093BC008093BB0087E103C080E001C04E
:1009B00080E090E490936B0024C0883099F08930F7
:1009C00031F49093C0002AEA30E080E016C08A300B
:1009D00069F08B3079F48BE48093AD002AEA30E043
:1009E00080E00BC020EC30E081E007C02AEA30E074
:1009F00081E003C02AEA30E080E03093BC0020931D
:100A0000BB009F81911104C09E81981708F4892F23
:100A1000809362001092BD008091630084FF4CC0FF
:100A2000809162008F3F09F447C0C82F893008F0D9
:100A3000C8E08C1B80936200E1EAF0E0908188E8D6
:100A400089278083CC2309F445C02091BB003091D5
:100A5000BC0080916B0086FF10C0A2EAB0E0F901F3
:100A60008C2F94919D9331968150D9F72F5F3F4FF2
:100A70008FEF8C0F280F311D0EC0A2EAB0E0F901F4
:100A80008C2F91919D938150E1F72F5F3F4F8FEF16
:100A90008C0F280F311D3093BC002093BB006C2FAE
:100AA00082EA90E00E949500CC5FCC3018F48FEF82
:100AB00080936200C093630080B3847191F493E1EA
:100AC00080B3847171F49150D9F71092BE001092E6
:100AD000B80007C06C2F82EA90E00E949500CC5FBE
:100AE000E6CFDF91CF91089585B7826085BF8BB740
:100AF00080648BBFECEAF0E08BE481838AE580833D
:060B00000895F894FFCFF8
:040B06000100FF5A91
:00000001FF
