S00F0000484944206766652E73726563EE
S11300000C9461000C9499000C947E000C947E0076
S11300100C947E000C947E000C947E000C947E0064
S11300200C947E000C947E000C947E000C947E0054
S11300300C947E000C947E000C947E000C947E0044
S11300400C947E000C947E000C947E000C947E0034
S11300500C947E0005010905A10105091901292057
S113006015002501750195208102C00902220001B5
S11300700100800A090400000103000000092101B5
S11300800100012217000705810308006412011012
S11300900100000008C016E9030001010200010C80
S11300A0036700660065002000310012036F0062E0
S11300B0006400650076002E0061007400040309EA
S11300C0040011241FBECFE5D4E0DEBFCDBF10E095
S11300D0A0E6B0E0E0EAF8E002C005900D92A23696
S11300E0B107D9F720E0A2E6B0E001C01D92A43C1C
S11300F0B207E1F70E9431020C944E040C94000004
S1130100A82FB92F80E090E041E050EA609530E0FC
S113011009C02D9182279795879510F084279527FC
S1130120305EC8F36F5FA8F30895EADF8D939D9363
S11301300895CF93CFB7CF93C395849BE9F7849B5E
S113014009C0849B07C0849B05C0849B03C0849B17
S113015001C0A3C0DF93C091A700DD27C255DF4FC4
S1130160849B02C0DF91EBCF2F930F931F9300B3B7
S11301702FEF04FB20F94F933F9310B34FEF012768
S113018004FB21F93BE031C04E7F012F10B3216005
S113019028C0102F4D7F2260000000B329C04B7F80
S11301A02460012F000010B32BC010B3477F2860D8
S11301B02AC04F7E00B320612CC04F7D10B3206253
S11301C02FC04F7B00B3206432C0422700B3499351
S11301D04FEF0000102714FB20F910B31471C9F17C
S11301E0297F91F2012704FB21F900B3237F89F2CF
S11301F0315058F1102714FB22F910B3277E79F2FD
S1130200012704FB23F92F7C81F200B3102714FB90
S113021024F92F7971F200C010B3012704FB25F9EA
S11302202F7359F200C000B3102714FB26F92230B3
S113023040F200C010B3012704FB27F9243028F64C
S11302404F77206810B30000F9CF10E41ABF0027DD
S113025019C03B503195C31BD04010E41ABF08812C
S1130260033CF9F00B34E9F02091A5001981110F3A
S11302701213EDCF4A81441F093641F10D3211F0BA
S1130280013E29F70093AC003F914F911F910F91CC
S11302902F91DF91CAB7C6FD4FCFCF91CFBFCF917A
S11302A018952091AC00222379F31091AA00112310
S11302B069F534306AF13093AA002093A6001091B6
S11302C0A7003BE0311B3093A70022C00091AA0095
S11302D00130E4F40AE54F7049F43091610034FDD3
S11302E019C000936100CEE8D0E018C030919900A5
S11302F034FD10C000939900CAE9D0E00FC02795DF
S1130300A8F45150A9F4220F0000F9CF4AE503C024
S113031042ED01C0432FC4E1D0E032E011B31461D7
S1130320949A11BB02B320E414E15F93012756E0D1
S113033002BB279520F4515021F4220FF9CF012755
S113034056E000003B5A02BBD0F2279528F45150E6
S113035029F4220F0000F9CF012756E0279502BBAC
S113036020F4515021F4220FF9CF012756E02991AE
S1130370332302BB21F60B7E1091AB00110FC65143
S1130380D04002BB11F01093A50010E41ABF006125
S113039011B31B7E402F4B7E5F9100C000C002BB97
S11303A011BB42BB71CFCF93DF93FC019081907658
S11303B0903221F5EF01BF016F5F7F4F41E080E58F
S11303C00E94A2028981813041F485E690E09093F5
S11303D0A9008093A80084E014C0823041F484E62C
S11303E090E09093A9008093A80081E00AC08A302D
S11303F039F48B818093640080E003C080E001C005
S113040080E0DF91CF91089584B3887F84BB85B366
S1130410887F85BB87B3887F87BB88B3876088BBA9
S1130420EAE6F0E080E090E061E070E024B3287F49
S113043024BB44B39B01082E02C0220F331F0A942D
S1130440E2F7242B24BBA7E5B2E01197F1F700C033
S1130450000026B32095219301968430910531F74D
S1130460089517BA9EE088E10FB6F894A89581BD67
S11304700FBE91BD539A86E289B940E060E070E016
S113048080E00E94A2020E9441048C9A8FEFA895FA
S1130490E7EBFBE03197F1F700C000008150B9F7BA
S11304A08C98789440E060E070E081E00E94A202C1
S11304B0C9E9D0E005E610E00F2EFAE6EF2EF0E0F1
S11304C0FF2EF02D0E94040210926300109262002D
S11304D0A8950E940403888184FF15C086B38078A0
S11304E0F8018083F7018081F8018183F70181811C
S11304F0F8018283F7018281F801838364E0C801F3
S11305000E94D002DFCF0E94040210926300109276
S11305106200DECF5D9BFECF8CB90895CF93C82FC8
S113052082958F708A3008F0895D805D0E948A020E
S11305308C2F8F708A3008F0895D805D0E948A025A
S1130540CF910895EF92FF920F931F93CF93DF9370
S11305507B01C42F0E948E028AE30E948A028FEFDD
S11305608C0FCC2381F0E701082F10E00F5F1F4FA1
S11305700E0D1F1D80E20E948A0289910E948E0244
S1130580C017D107B9F78DE00E948A028AE00E9461
S11305908A02DF91CF911F910F91FF90EF90089500
S11305A0CF93C62F2091990024FF07C0E9E9F0E01A
S11305B0318128E82327218303C02AE52093990069
S11305C0E82FF92FABE9B0E08C2F91919D938150E6
S11305D0E1F76C2F8BE990E00E94950084E08C0F8A
S11305E0E9E9F0E0808343E04C0FF595E795F59554
S11305F0E795F595E7958E2F83706AE970E08F5D36
S11306000E94A202CF9108951F93CF93DF9340914C
S1130610AA001DEF140F0AF4BDC08091A700CCE01E
S1130620D0E0C81BD109C255DF4F41508091A600CC
S11306308F70BE01805F0E94A2028091A6008D325D
S113064009F0A6C0183009F0A3C083EC80938E0093
S11306508AE580936100109269008881807621F098
S1130660CE010E94D3018BC09A8110929700898198
S1130670811106C01092980027E930E082E07BC027
S1130680853031F49093AB0027E930E080E073C00B
S1130690863009F050C08B81813041F48DE890E0C0
S11306A09093A9008093A80082E141C0823041F474
S11306B08BE690E09093A9008093A80082E237C073
S11306C08330F1F4911108C08DEB90E09093A90070
S11306D08093A80084E02BC0913041F48BEA90E031
S11306E09093A9008093A80082E121C09230E1F4A4
S11306F08FE990E09093A9008093A8008CE017C044
S1130700813241F48DE790E09093A9008093A80092
S113071089E00DC0823251F484E590E09093A90001
S11307208093A80087E103C080E001C080E090E4EA
S11307309093690024C0883099F0893031F4909303
S1130740AD0027E930E080E016C08A3069F08B30D4
S113075079F48BE480939A0027E930E080E00BC0C1
S11307602DEA30E081E007C027E930E081E003C0F2
S113077027E930E080E03093A9002093A8009F810E
S1130780911104C09E81981708F4892F809360000A
S11307901092AA008091610084FF53C08091600090
S11307A08F3F09F44EC0C82F893008F0C8E08C1B75
S11307B080936000EEE8F0E0908188E889278083E8
S11307C0CC2309F452C02091A8003091A900809153
S11307D0690086FF10C0AFE8B0E0F9018C2F949156
S11307E09D9331968150D9F72F5F3F4F8FEF8C0F38
S11307F0280F311D0EC0AFE8B0E0F9018C2F9191A4
S11308009D938150E1F72F5F3F4F8FEF8C0F280F9F
S1130810311D3093A9002093A8006C2F8FE890E03D
S11308200E94950044E04C0F4C3018F48FEF8093F5
S113083060004093610041506EE870E080E20E94E5
S1130840A20280B38471C9F493E180B38471A9F4E2
S11308509150D9F71092AB001092A50040E060E0EF
S113086070E08FEF0E94A20208C06C2F8FE890E026
S11308700E94950044E04C0FD9CFDF91CF911F9196
S1130880089585B7826085BF8BB780648BBFE9E923
S1130890F0E08BE481838AE580830895F894FFCFA8
S10508A0FF5AF9
S9030000FC
