S012000067313030305F6C6566742E73726563E0
S11300000C946A000C94A2000C9487000C94870052
S11300100C9487000C9487000C9487000C94870040
S11300200C9487000C9487000C9487000C94870030
S11300300C9487000C9487000C9487000C94870020
S11300400C9487000C9487000C9487000C94870010
S11300500C94870005010905A1010509190129204E
S113006015002501750195208102050109361581C8
S1130070257F750895018102C00902220001010053
S1130080800A0904000001030000000921010100A5
S113009001222500070581030800641201100100F4
S11300A0000008C01601400001010200011A0367A4
S11300B00031003000203030005F006C00650066C5
S11300C00074002000310008036700660065000426
S11300D00309040011241FBECFE5D4E0DEBFCDBF69
S11300E010E0A0E6B0E0ECEFFAE002C005900D925B
S11300F0A436B107D9F720E0A4E6B0E001C01D9210
S1130100A73DB207E1F70E9472020C947C050C949F
S11301100000A82FB92F80E090E041E050EA6095FC
S113012030E009C02D9182279795879510F0842798
S11301309527305EC8F36F5FA8F30895EADF8D93C7
S11301409D930895CF93CFB7CF93C395849BE9F73D
S1130150849B09C0849B07C0849B05C0849B03C007
S1130160849B01C0A3C0DF93C091BA00DD27CF53A5
S1130170DF4F849B02C0DF91EBCF2F930F931F932C
S113018000B32FEF04FB20F94F933F9310B34FEFCD
S1130190012704FB21F93BE031C04E7F012F10B34E
S11301A0216028C0102F4D7F2260000000B329C0B9
S11301B04B7F2460012F000010B32BC010B3477F86
S11301C028602AC04F7E00B320612CC04F7D10B33D
S11301D020622FC04F7B00B3206432C0422700B39B
S11301E049934FEF0000102714FB20F910B314714A
S11301F0C9F1297F91F2012704FB21F900B3237F80
S113020089F2315058F1102714FB22F910B3277EDC
S113021079F2012704FB23F92F7C81F200B3102724
S113022014FB24F92F7971F200C010B3012704FBE9
S113023025F92F7359F200C000B3102714FB26F9D7
S1130240223040F200C010B3012704FB27F9243008
S113025028F64F77206810B30000F9CF10E41ABFD6
S1130260002719C03B503195C31BD04010E41ABF7E
S11302700881033CF9F00B34E9F02091B8001981AE
S1130280110F1213EDCF4A81441F093641F10D328B
S113029011F0013E29F70093BF003F914F911F9148
S11302A00F912F91DF91CAB7C6FD4FCFCF91CFBF2A
S11302B0CF9118952091BF00222379F31091BD00AE
S11302C0112369F534306AF13093BD002093B900ED
S11302D01091BA003BE0311B3093BA0022C0009168
S11302E0BD000130E4F40AE54F7049F43091630035
S11302F034FD19C000936300C1EAD0E018C0309106
S1130300AC0034FD10C00093AC00CDEAD0E00FC0C7
S11303102795A8F45150A9F4220F0000F9CF4AE51B
S113032003C042ED01C0432FC4E1D0E032E011B379
S11303301461949A11BB02B320E414E15F93012782
S113034056E002BB279520F4515021F4220FF9CF37
S1130350012756E000003B5A02BBD0F2279528F44F
S1130360515029F4220F0000F9CF012756E02795B8
S113037002BB20F4515021F4220FF9CF012756E09B
S11303802991332302BB21F60B7E1091BE00110F7D
S1130390C651D04002BB11F01093B80010E41ABF4C
S11303A0006111B31B7E402F4B7E5F9100C000C0E3
S11303B002BB11BB42BB71CFFC01808180768032CD
S11303C0D1F48181813041F487E690E09093BC00C0
S11303D08093BB0084E00895823041F486E690E087
S11303E09093BC008093BB0081E008958A3019F497
S11303F083818093660080E00895E0916400F09129
S11304006500EF57FF4F8081982F9370282F2C7031
S113041026952695291759F021E030E030936100A4
S113042020936000990F990F837F892B808308950F
S1130430E0916400F0916500E459FF4F8081282F1A
S11304402C7030E03595279535952795482F4370C6
S1130450421729F161E070E07093610060936000DD
S1130460220F2827237090917400223030F09330AB
S113047010F4806405C0806109C0933030F4806852
S113048080839F5F9093740004C080628083109285
S113049074008081837F440F440F482B4083089568
S11304A0809164008F70806687B987EC86B936992D
S11304B0FECF8091640090916500FC01E758FF4FE6
S11304C0069714F084B1808785B1808308958EB532
S11304D088608EBD8EB585608EBD80E093E09BBD47
S11304E08ABD089510926C0010926D0010926E00F7
S11304F010926F00109270001092710010927200AE
S11305000E9467029EE088E10FB6F894A89581BD29
S11305100FBE91BD0E946F058C9A80E0815041F01E
S1130520A895E7EBFBE03197F1F700C00000F6CFA8
S11305308C987894CFEFD1E010926500109264000B
S1130540809164009091650097FF0CC00E94FD01AA
S1130550809164009091650001969093650080936A
S11305606400EECF8AB31ABA87B317BA84B314BA45
S113057081B311BA8BB38F6D8BBB88B3C8BB85B302
S1130580C5BB82B38B6E82BB80B320B3887090E00E
S1130590959587959595879525FB992790F9892BAE
S11305A090916C009C70892B80936C0096B330B34F
S11305B020916D002C70832F8170282B9078892FC7
S11305C090E046E0959587954A95E1F7822B8093D4
S11305D06D0086B326B3807290E054E095958795BC
S11305E05A95E1F726FB992790F9892B90916E0093
S11305F09C70892B80936E0089B329B3807890E036
S113060066E0959587956A95E1F726FB992790F919
S1130610892B90916F009C70892B80936F0086B317
S113062026B3887090E0959587959595879522FBDC
S1130630992790F9892B909170009C70892B809355
S1130640700083B326B3847090E09595879521FB61
S1130650992790F9892B909171009C70892B809334
S11306607100109265001092640080916400909172
S11306706500069764F40E941802809164009091CA
S1130680650001969093650080936400EECF10920C
S1130690650010926400809164009091650097FF5A
S11306A00CC00E94500280916400909165000196F4
S11306B09093650080936400EECF46B330B393B358
S11306C023B383B373B363B353B3287020952870F3
S11306D0807180958071282B707270957072272BB1
S11306E0607460956074262B507850955078252B53
S11306F0407150E04095509542954170822F842B73
S11307003074232F30E02095309520743327A5E0F2
S113071035952795AA95E1F7282B9270892F90E0BB
S11307208095909582709927880F991F822B8093CA
S11307306700E6B3E1708E2F8D27C89B02C060E08E
S113074001C062E0A9B379B359B339B390B3A270CD
S1130750B0E0A095B095A270BB27AA0FBB1F747020
S1130760E72FF0E0E095F095E470FF27EE0FFF1F10
S1130770EA2BE82B5870452F50E04095509548706F
S11307805527440F551F8E2F842B3071232F30E0B3
S11307902095309520713327220F331F282B927018
S11307A0892F90E08095909582709927F5E0880FC5
S11307B0991FFA95E1F7822B862B989B02C060E083
S11307C001C060E8862B809368008091600090915E
S11307D061000197A9F580916F0030916C0032950A
S11307E0369536953370582F507C432F452B2091E6
S11307F06D00207C22952F70322F342B20916E00B7
S1130800207C26952695232B209369002091700047
S1130810207C8073822B82958F70982F906C8091AE
S11308207100807C86958695892B80936A0010924E
S113083061001092600088B7806188BF1DBC1CBC39
S113084087EB9BE00197F1F700C0000008B604FEB7
S113085009C01092690010926A001092740088B75F
S1130860806188BFA8950E9462048091AC0084FFD7
S113087063CE64E087E690E00E943F045DCECF93B0
S1130880C62F2091AC0024FF0BC03091AD0028E8A6
S113089023272093AD00FC01AEEAB0E08C2F04C006
S11308A02AE52093AC00F7CF91919D938150E1F715
S11308B06C2F8EEA90E00E949E00CC5FC093AC0047
S11308C0CF910895CF93DF938091BD00835087FD2E
S11308D0A9C09091B9009D3209F0A2C0883009F0F6
S11308E09FC08091BA00CCE0D0E0C81BD109CF539F
S11308F0DF4F83EC8093A1008AE58093630010921C
S11309006B008881807621F0CE010E94DC017FC0DB
S11309109A811092AA008981811106C01092AB00BD
S11309202AEA30E082E06FC0853019F49093BE006B
S113093067C0863009F04EC08B81813041F48BE969
S113094090E09093BC008093BB0082E13FC0823072
S113095041F489E790E09093BC008093BB0082E26D
S113096035C08330F1F4911108C08FEC90E090937E
S1130970BC008093BB0084E029C0913041F487EC33
S113098090E09093BC008093BB0088E01FC092303D
S1130990E1F48DEA90E09093BC008093BB008AE17F
S11309A015C0813241F48BE890E09093BC008093B1
S11309B0BB0089E00BC0823241F484E590E090935F
S11309C0BC008093BB0085E201C080E090E490937A
S11309D06B001DC0883069F0893019F49093C00011
S11309E00FC08A3049F08B3059F48BE48093AD000A
S11309F007C020EC30E002C02AEA30E081E003C006
S1130A002AEA30E080E03093BC002093BB009F8151
S1130A10911104C09E81981708F4892F8093620075
S1130A201092BD008091630084FF4CC080916200ED
S1130A308F3F09F447C0C82F893008F0C8E08C1BE9
S1130A40809362009091A10088E889278093A10097
S1130A50CC2359F18091BB009091BC0020916B0094
S1130A6026FF12C0A1EAB0E02C2FAC01415A50403D
S1130A70FA01EA0FFB1FE4911196EC9311972150B0
S1130A8011962111F5CF08C0E2EAF0E0DC012C2F29
S1130A903D9131932150E1F701962FEF2C0F820FF6
S1130AA0911D9093BC008093BB006C2F82EA90E070
S1130AB00E949E00CC5FCC3019F08FEF80936200CF
S1130AC0C093630084E190B3947131F48150D9F7F9
S1130AD01092BE001092B800DF91CF91089585B7AF
S1130AE0826085BF8BB780648BBFECEAF0E08BE457
S10F0AF081838AE580830895F894FFCF89
S1070AFC0100FF5A98
S9030000FC
