S011000067313030305F6374722E7372656343
S11300000C9465000C949D000C9482000C94820066
S11300100C9482000C9482000C9482000C94820054
S11300200C9482000C9482000C9482000C94820044
S11300300C9482000C9482000C9482000C94820034
S11300400C9482000C9482000C9482000C94820024
S11300500C94820005010905A10105091901292053
S113006015002501750195108102C00902220001C5
S11300700100800A090400000103000000092101B5
S11300800100012217000705810308006412011012
S11300900100000008C01602400001010200011E18
S11300A003670031003000300030005F00630065FA
S11300B0006E0074006500720020003100080367C0
S11300C00066006500040309040011241FBECFE587
S11300D0D4E0DEBFCDBF10E0A0E6B0E0E2E5F8E09A
S11300E002C005900D92A236B107D9F720E0A2E62E
S11300F0B0E001C01D92AC39B207E1F70E940702DB
S11301000C9427040C940000A82FB92F80E090E0F1
S113011041E050EA609530E009C02D91822797951F
S1130120879510F084279527305EC8F36F5FA8F396
S11301300895EADF8D939D930895CF93CFB7CF931E
S1130140C395819BE9F7819B09C0819B07C0819B73
S113015005C0819B03C0819B01C0A3C0DF93C091F4
S11301607F00DD27CA57DF4F819B02C0DF91EBCFB1
S11301702F930F931F9300B32FEF01FB20F94F939D
S11301803F9310B34FEF012701FB21F93BE031C04E
S11301904E7F012F10B3216028C0102F4D7F2260A5
S11301A0000000B329C04B7F2460012F000010B36E
S11301B02BC010B3477F28602AC04F7E00B3206154
S11301C02CC04F7D10B320622FC04F7B00B320643E
S11301D032C0422700B349934FEF0000102711FBB0
S11301E020F910B31670C9F1297F91F2012701FBA0
S11301F021F900B3237F89F2315058F1102711FB04
S113020022F910B3277E79F2012701FB23F92F7C11
S113021081F200B3102711FB24F92F7971F200C089
S113022010B3012701FB25F92F7359F200C000B365
S1130230102711FB26F9223040F200C010B3012729
S113024001FB27F9243028F64F77206810B300000B
S1130250F9CF10E41ABF002719C03B503195C31BD6
S1130260D04010E41ABF0881033CF9F00B34E9F0E4
S113027020917D001981110F1213EDCF4A81441F83
S1130280093641F10D3211F0013E29F70093840043
S11302903F914F911F910F912F91DF91CAB7C6FDE6
S11302A04FCFCF91CFBFCF911895209184002223B7
S11302B079F310918200112369F534306AF1309397
S11302C0820020937E0010917F003BE0311B30932D
S11302D07F0022C0009182000130E4F40AE54F70EF
S11302E049F43091610034FD19C000936100C6E601
S11302F0D0E018C03091710034FD10C0009371003B
S1130300C2E7D0E00FC02795A8F45150A9F4220FFA
S11303100000F9CF4AE503C042ED01C0432FC4E118
S1130320D0E032E011B31660919A11BB02B320E41D
S113033016E05F93012756E002BB279520F4515045
S113034021F4220FF9CF012756E000003B5A02BBEB
S1130350D0F2279528F4515029F4220F0000F9CF48
S1130360012756E0279502BB20F4515021F4220FB7
S1130370F9CF012756E02991332302BB21F6097FE7
S113038010918300110FC651D04002BB11F010939D
S11303907D0010E41ABF026011B3197F402F497F1A
S11303A05F9100C000C002BB11BB42BB71CFFC0116
S11303B0908190769032E1F48181813041F483E63A
S11303C090E0909381008093800082E008958230D1
S11303D041F482E690E0909381008093800081E074
S11303E008958A3039F483818093620080E008950F
S11303F080E0089580E008958EB588608EBD8EB546
S113040085608EBD80E093E09BBD8ABD08950E9407
S1130410FC019EE088E10FB6F894A89581BD0FBE5B
S113042091BD0E941A04899A8FEFA895E7EBFBE02F
S11304303197F1F700C000008150B9F7899878949A
S11304406894CC24C1F8C3E6D0E001E710E0FF24AF
S1130450FA94DC2C6894EE24E3F887B317BA84B3D7
S113046014BA81B311BA88B3F8BA85B3F5BA82B3B2
S1130470896F82BB26B3227030E020953095269593
S11304802170B09B02C050E001C05D2D40B330B379
S113049090B34078642F70E060957095607877270A
S11304A07595679575956795759567957595679530
S11304B075956795262B3074E32FF0E0E095F09561
S11304C0E074FF27F595E795F595E795F595E7959C
S11304D02E2B9072692F70E060957095607277276B
S11304E075956795822F862B809B02C040E001C0E2
S11304F040E233B393B33072232F30E0209530952C
S113050020723327220F331F282B9071892F90E0FC
S11305108095909580719927880F991F880F991F4E
S1130520880F991F822B852B482B488343B333B301
S113053093B3487050E04095509543FB882780F969
S11305403470232F30E0209530952470332735956F
S11305502795282B9270892F90E080959095827032
S11305609927880F991F822B989B02C090E001C0A5
S11305709E2D892B898387EB9BE00197F1F700C0BF
S1130580000008B604FE03C088B7806188BFA89540
S11305900E94F602F801808184FF5FCF6C2DCE01AA
S11305A00E94D3025ACFCF93C62F2091710024FF0B
S11305B007C0E1E7F0E0318128E82327218303C065
S11305C02AE520937100E82FF92FA3E7B0E08C2FE0
S11305D091919D938150E1F76C2F83E790E00E9405
S11305E09900CC5FC0937100CF910895CF93DF93AE
S11305F08091820083500AF4B5C090917E009D32B0
S113060009F0AEC0883009F0ABC080917F00CCE027
S1130610D0E0C81BD109CA57DF4F83EC8093660032
S11306208AE580936100109265008881807621F0CC
S1130630CE010E94D7018BC09A8110926F008981EC
S1130640811106C0109270002FE630E082E07BC07A
S1130650853031F4909383002FE630E080E073C05E
S1130660863009F050C08B81813041F48DE890E0F0
S1130670909381008093800082E141C0823041F4F4
S11306808BE690E0909381008093800082E237C0F3
S11306908330F1F4911108C085EC90E090938100CF
S11306A08093800084E02BC0913041F48DEB90E086
S11306B0909381008093800088E021C09230E1F41F
S11306C08FE990E090938100809380008EE117C0C1
S11306D0813241F48DE790E0909381008093800013
S11306E089E00DC0823251F484E590E0909381005A
S11306F08093800087E103C080E001C080E090E443
S11307009093650024C0883099F0893031F4909337
S113071085002FE630E080E016C08A3069F08B3027
S113072079F48BE4809372002FE630E080E00BC014
S113073025E830E081E007C02FE630E081E003C027
S11307402FE630E080E030938100209380009F8189
S1130750911104C09E81981708F4892F809360003A
S1130760109282008091610084FF4CC080916000EF
S11307708F3F09F447C0C82F893008F0C8E08C1BAC
S113078080936000E6E6F0E0908188E88927808322
S1130790CC2309F445C020918000309181008091E0
S11307A0650086FF10C0A7E6B0E0F9018C2F949194
S11307B09D9331968150D9F72F5F3F4F8FEF8C0F68
S11307C0280F311D0EC0A7E6B0E0F9018C2F9191DE
S11307D09D938150E1F72F5F3F4F8FEF8C0F280FD0
S11307E0311D30938100209380006C2F87E690E0C8
S11307F00E949900CC5FCC3018F48FEF8093600096
S1130800C093610080B3867091F493E180B38670E5
S113081071F49150D9F71092830010927D0007C0B3
S11308206C2F87E690E00E949900CC5FE6CFDF91C1
S1130830CF91089585B7826085BF8BB780648BBFE5
S1130840E1E7F0E08BE481838AE580830895F894FE
S1050850FFCFD4
S1050852FF5A47
S9030000FC
